:020000040800F2
:1000000000000420652C0008E12B0008E32B000809
:10001000E52B0008E72B0008E92B0008B52C0008A9
:10002000000000000000000000000000EB2B0008B2
:10003000ED2B000800000000EF2B0008F12B00085A
:10004000B52C0008B52C0008B52C0008B52C00080C
:10005000B52C0008B52C0008B52C0008B52C0008FC
:10006000B52C0008B52C0008B52C0008B52C0008EC
:10007000B52C0008B52C0008B52C0008B52C0008DC
:10008000B52C0008B52C0008B52C0008B52C0008CC
:10009000B52C0008B52C0008B52C0008B52C0008BC
:1000A000B52C0008B52C0008B52C0008B52C0008AC
:1000B000B52C0008B52C0008B52C0008B52C00089C
:1000C000B52C0008B52C0008B52C0008B52C00088C
:1000D000B52C0008B52C0008B52C0008B52C00087C
:1000E000B52C0008B52C0008B52C0008B52C00086C
:1000F000B52C0008B52C0008B52C0008B52C00085C
:10010000B52C0008B52C0008B52C0008B52C00084B
:10011000B52C0008B52C0008B52C0008B52C00083B
:10012000B52C0008B52C0008B52C0008B52C00082B
:10013000B52C0008B52C000800000000B52C000804
:10014000B52C0008B52C0008B52C0008B52C00080B
:10015000B52C0008B52C0008B52C0008B52C0008FB
:10016000B52C0008B52C0008B52C000800000000D4
:10017000B52C0008B52C0008B52C000800000000C4
:10018000B52C0008B52C0008B52C0008B52C0008CB
:10019000B52C0008B52C0008B52C0008B52C0008BB
:1001A000B52C0008B52C0008B52C00080000000094
:1001B000B52C0008B52C0008B52C0008B52C00089B
:1001C000B52C0008B52C0008B52C0008B52C00088B
:1001D000B52C0008B52C0008B52C0008B52C00087B
:1001E000000000000000000000000000B52C000826
:1001F000B52C000800000000B52C0008B52C000844
:10020000B52C0008B52C0008B52C0008B52C00084A
:10021000B52C0008B52C000800000000B52C000823
:10022000000000000000000000000000B52C0008E5
:08023000B52C0008B52C0008F4
:100238000348044B834202D0034B03B1184770476D
:10024800940000209400002000000000064B07499D
:10025800C91A891048BF0131491003D0044B0BB1AA
:1002680001481847704700BF940000209400002000
:100278000000000010B5064C237843B9FFF7D8FFFB
:10028800044B13B10448AFF300800123237010BD61
:10029800A000002000000000004A010808B5044B37
:1002A8001BB104490448AFF30080BDE80840CDE71E
:1002B80000000000A4000020004A010881F000416D
:1002C80002E000BF83F0004330B54FEA41044FEA33
:1002D800430594EA050F08BF90EA020F1FBF54EACE
:1002E800000C55EA020C7FEA645C7FEA655C00F06A
:1002F800E2804FEA5454D4EB5555B8BF6D420CDD3B
:100308002C4480EA020281EA030382EA000083EABD
:10031800010180EA020281EA0303362D88BF30BD5D
:1003280011F0004F4FEA01314FF4801C4CEA1131B3
:1003380002D0404261EB410113F0004F4FEA033312
:100348004CEA133302D0524263EB430394EA050F9D
:1003580000F0A780A4F10104D5F1200E0DDB02FA0C
:100368000EFC22FA05F2801841F1000103FA0EF2A0
:10037800801843FA05F359410EE0A5F120050EF166
:10038800200E012A03FA0EFC28BF4CF0020C43FA97
:1003980005F3C01851EBE37101F0004507D54FF0A4
:1003A800000EDCF1000C7EEB00006EEB0101B1F5F4
:1003B800801F1BD3B1F5001F0CD349085FEA30003A
:1003C8004FEA3C0C04F101044FEA445212F5800F45
:1003D80080F09A80BCF1004F08BF5FEA500C50F1E2
:1003E800000041EB045141EA050130BD5FEA4C0CC5
:1003F800404141EB0101013C28BFB1F5801FE9D222
:1004080091F0000F04BF01460020B1FA81F308BF44
:100418002033A3F10B03B3F120020CDA0C3208DD10
:1004280002F1140CC2F10C0201FA0CF021FA02F1EB
:100438000CE002F11402D8BFC2F1200C01FA02F15B
:1004480020FA0CFCDCBF41EA0C019040E41AA2BF80
:1004580001EB0451294330BD6FEA04041F3C1CDA48
:100468000C340EDC04F11404C4F1200220FA04F068
:1004780001FA02F340EA030021FA04F345EA030112
:1004880030BDC4F10C04C4F1200220FA02F001FAD4
:1004980004F340EA0300294630BD21FA04F0294656
:1004A80030BD94F0000F83F4801306BF81F48011EF
:1004B8000134013D4EE77FEA645C18BF7FEA655C62
:1004C80029D094EA050F08BF90EA020F05D054EA34
:1004D800000C04BF1946104630BD91EA030F1EBF39
:1004E8000021002030BD5FEA545C05D1400049413D
:1004F80028BF41F0004130BD14F580043CBF01F530
:10050800801130BD01F0004545F0FE4141F4700115
:100518004FF0000030BD7FEA645C1ABF19461046F0
:100528007FEA655C1CBF0B46024650EA013406BFF1
:1005380052EA033591EA030F41F4002130BD00BFB0
:1005480090F0000F04BF0021704730B54FF480646D
:1005580004F132044FF000054FF0000150E700BFEE
:1005680090F0000F04BF0021704730B54FF480644D
:1005780004F1320410F0004548BF40424FF000013A
:100588003EE700BF42004FEAE2014FEA31014FEA7D
:1005980002701FBF12F07F4393F07F4F81F06051CC
:1005A800704732F07F4208BF704793F07F4F04BF17
:1005B80041F40021704730B54FF4607401F00045F4
:1005C80021F000411CE700BF50EA010208BF704754
:1005D80030B54FF000050AE050EA010208BF704745
:1005E80030B511F0004502D5404261EB41014FF4AE
:1005F800806404F132045FEA915C3FF4D8AE4FF0B6
:1006080003025FEADC0C18BF03325FEADC0C18BF98
:10061800033202EBDC02C2F1200300FA03FC20FAE9
:1006280002F001FA03FE40EA0E0021FA02F1144436
:10063800BDE600BF70B54FF0FF0C4CF4E06C1CEA4F
:1006480011541DBF1CEA135594EA0C0F95EA0C0FC0
:1006580000F0DEF82C4481EA030621EA4C5123EA33
:100668004C5350EA013518BF52EA033541F4801162
:1006780043F4801338D0A0FB02CE4FF00005E1FB15
:1006880002E506F00042E0FB03E54FF00006E1FB5F
:1006980003569CF0000F18BF4EF0010EA4F1FF04A2
:1006A800B6F5007F64F5407404D25FEA4E0E6D41E2
:1006B80046EB060642EAC62141EA55514FEAC520F3
:1006C80040EA5E504FEACE2EB4F1FD0C88BFBCF56F
:1006D800E06F1ED8BEF1004F08BF5FEA500E50F120
:1006E800000041EB045170BD06F0004646EA0101E6
:1006F80040EA020081EA0301B4EB5C04C2BFD4EB18
:100708000C0541EA045170BD41F480114FF0000E10
:10071800013C00F3AB8014F1360FDEBF002001F07E
:10072800004170BDC4F10004203C35DA0C341BDCF8
:1007380004F11404C4F1200500FA05F320FA04F0CA
:1007480001FA05F240EA020001F0004221F00041FE
:1007580010EBD37021FA04F642EB06015EEA430E71
:1007680008BF20EAD37070BDC4F10C04C4F12005A1
:1007780000FA04F320FA05F001FA04F240EA020054
:1007880001F0004110EBD37041F100015EEA430E25
:1007980008BF20EAD37070BDC4F1200500FA05F245
:1007A8004EEA020E20FA04F301FA05F243EA0203C4
:1007B80021FA04F001F0004121FA04F220EA0200D3
:1007C80000EBD3705EEA430E08BF20EAD37070BD19
:1007D80094F0000F0FD101F00046400041EB0101F9
:1007E80011F4801F08BF013CF7D041EA060195F0DB
:1007F800000F18BF704703F00046520043EB030395
:1008080013F4801F08BF013DF7D043EA0603704781
:1008180094EA0C0F0CEA135518BF95EA0C0F0CD08C
:1008280050EA410618BF52EA4306D1D181EA0301D2
:1008380001F000414FF0000070BD50EA410606BFCC
:100848001046194652EA430619D094EA0C0F02D111
:1008580050EA013613D195EA0C0F05D152EA033656
:100868001CBF104619460AD181EA030101F0004174
:1008780041F0FE4141F470014FF0000070BD41F0BD
:10088800FE4141F4780170BD70B54FF0FF0C4CF497
:10089800E06C1CEA11541DBF1CEA135594EA0C0FB6
:1008A80095EA0C0F00F0A7F8A4EB050481EA030E03
:1008B80052EA03354FEA013100F088804FEA0333EA
:1008C8004FF0805545EA131343EA12634FEA0222B8
:1008D80045EA111545EA10654FEA00260EF0004179
:1008E8009D4208BF964244F1FD0404F5407402D2CB
:1008F8005B084FEA3202B61A65EB03055B084FEA5C
:1009080032024FF480104FF4002CB6EB020E75EB58
:10091800030E22BFB61A754640EA0C005B084FEA80
:100928003202B6EB020E75EB030E22BFB61A7546FD
:1009380040EA5C005B084FEA3202B6EB020E75EB48
:10094800030E22BFB61A754640EA9C005B084FEAC0
:100958003202B6EB020E75EB030E22BFB61A7546CD
:1009680040EADC0055EA060E18D04FEA051545EABC
:1009780016754FEA06164FEAC30343EA52734FEA65
:10098800C2025FEA1C1CC0D111F4801F0BD141EADE
:1009980000014FF000004FF0004CB6E711F4801F43
:1009A80004BF01430020B4F1FD0C88BFBCF5E06F23
:1009B8003FF6AFAEB5EB030C04BFB6EB020C5FEA33
:1009C800500C50F1000041EB045170BD0EF0004E88
:1009D8004EEA113114EB5C04C2BFD4EB0C0541EABA
:1009E800045170BD41F480114FF0000E013C90E6B7
:1009F80045EA060E8DE60CEA135594EA0C0F08BF7B
:100A080095EA0C0F3FF43BAF94EA0C0F0AD150EA79
:100A180001347FF434AF95EA0C0F7FF425AF10460C
:100A280019462CE795EA0C0F06D152EA03353FF434
:100A3800FDAE1046194622E750EA410618BF52EAB1
:100A480043067FF4C5AE50EA41047FF40DAF52EA85
:100A580043057FF4EBAE12E74FEA410212F50012AC
:100A680015D211D56FF47873B3EB625212D94FEAED
:100A7800C12343F0004343EA505311F0004F23FAD7
:100A880002F018BF404270474FF00000704750EA2C
:100A9800013005D111F0004008BF6FF000407047E9
:100AA8004FF00000704700BF4A0011D212F5001243
:100AB80011D20DD56FF47873B3EB62520ED44FEAAE
:100AC800C12343F0004343EA505323FA02F070472E
:100AD8004FF00000704750EA013002D14FF0FF306C
:100AE80070474FF00000704753B94AB9002908BF52
:100AF80000281CBF4FF0FF314FF0FF3000F08CB9D9
:100B0800ADF1080C6DE904CE00F006F8DDF804E05C
:100B1800DDE9022304B070472DE9F04F099D0E4628
:100B280004460F46002B47D18A429446B2FA82F314
:100B38005AD943B102FA03FCC3F120029F409C40FA
:100B480020FA02F217434FEA1C461FFA8CFE220CC9
:100B5800B7FBF6F106FB117701FB0EF042EA0742FC
:100B6800904208D91CEB020201F1FF3702D29042F1
:100B780000F23C813946121AA4B2B2FBF6F006FB29
:100B8800102200FB0EFE44EA0244A64508D91CEBDD
:100B9800040400F1FF3202D2A64500F22A81104671
:100BA80040EA0140A4EB0E0400211DB1DC40002303
:100BB800C5E90043BDE8F08F8B4205D90DB1C5E901
:100BC800000100210846F5E7B3FA83F100294FD167
:100BD800B342C0F00281824240F2FF800846002DF5
:100BE800E8D0C5E90047E5E7002B40F0AF808A1A56
:100BF8004FEA1C4E1FFA8CF70121B2FBFEF60EFBE2
:100C08001620220C42EA004207FB06F090420FD958
:100C18001CEB020206F1FF382CBF4FF001094FF020
:100C28000009904203D9B9F1000F00F0DC80464674
:100C3800121AA4B2B2FBFEF00EFB102200FB07F75B
:100C480044EA0244A7420FD91CEB040400F1FF3226
:100C58002CBF4FF0010E4FF0000EA74203D9BEF192
:100C6800000F00F0C9801046E41B40EA06409CE7EC
:100C7800C1F120048B4006FA01FC00FA01FE22FAB9
:100C880004F7E6408A401F4320FA04F34FEA174866
:100C980043EA0C031FFA87FC4FEA1349B6FBF8F046
:100CA80008FB106649EA064600FB0CF9B1450ED967
:100CB800BE1900F1FF3A2CBF4FF0010B4FF0000BAB
:100CC800B14503D9BBF1000F00F0A2805046A6EB56
:100CD80009061FFA83F9B6FBF8F308FB136603FB52
:100CE8000CFC49EA0646B4450ED9BE1903F1FF3893
:100CF8002CBF4FF001094FF00009B44503D9B9F1F1
:100D0800000F00F08280434643EA0040A6EB0C0641
:100D1800A0FB028C66454346E14602D307D1C6458F
:100D280005D2B8EB02036CEB070C0138E1465DB164
:100D3800BEEB030266EB090606FA04F422FA01F395
:100D4800CE401C43C5E90046002133E702FA03FC04
:100D5800C3F1200299409C40D6404FEA1C4E20FA2D
:100D680002F21FFA8CF7B6FBFEF00A430EFB106680
:100D7800110C41EA064100FB07F68E420ED91CEB26
:100D8800010100F1FF382CBF4FF001094FF00009B5
:100D98008E4202D9B9F1000F34D04046891B92B275
:100DA800B1FBFEF60EFB161142EA014206FB07F103
:100DB80091420ED91CEB020206F1FF382CBF4FF00E
:100DC80001094FF00009914202D9B9F1000F16D07C
:100DD8004646521A46EA00410FE7841A66EB0302B8
:100DE80001201746FBE6023E624421E702396244CD
:100DF800C1E664440238D3E66444023834E7023E6C
:100E08006244E6E702386144C8E7023B3E447BE7B8
:100E180002383E445BE700BF704700BF01292DE957
:100E2800F0415DD94FF0010800244FF0FF35C64668
:100E3800434608E0A3EB05081C464FF0010E04EBFF
:100E48000E03994210D900EB050CC75C1CF80E6024
:100E5800B742EFD332D04FF001082546C646444486
:100E680004EB0E039942EED8012700244FF0FF3619
:100E7800C2F80080BE463B4607E09F1B1C464FF069
:100E8800010E04EB0E03994210D900EB060C10F882
:100E980003801CF80EC0E045EFD814D00127264681
:100EA800BE463C4404EB0E039942EED80136681C5A
:100EB800864201D330461760BDE8F081C64507D0A9
:100EC8000EF1010EBBE7BE4506D00EF1010ED8E7C4
:100ED80074444FF0010EB2E774444FF0010ED0E7AE
:100EE80001270026E6E700BF2DE9F04F174687B037
:100EF8008046894605AA194638461C46FFF78EFFE4
:100F0800059B82463846F9180293524601F00AFCBE
:100F180000285ED144F400630646A9EB04010546A7
:100F28000193CAF1010B029BE31A0393A9421AD356
:100F38005645334638BF53469C4222D9581EEA18B4
:100F48003844424402E001339C421AD012F801CBE3
:100F580010F801EFE645F6D09C4212D95D44002610
:100F68001D44A942E4D2019908EB090001F008FCEC
:100F78008144A9EB0401A942DAD2002007B0BDE8F8
:100F8800F08F56450AF1FF336FD205EB0A0207EBE3
:100F98000A000095424402E09E4211D0734610F8C0
:100FA80001CD03F1FF3E12F8015DAC45F4D0009D80
:100FB800013301369E4207D8029B039E1D44B5E7C4
:100FC8000136009D9E42F7D908EB050007B0BDE841
:100FD800F08FA4EB0A030025A9EB04010AF1FF3600
:100FE8005345CAF1010B38BF5346013301930593AA
:100FF80044F400630093A94216D3544520D905EB65
:101008000A02B8195346424402E001339C4217D001
:1010180012F801CB10F801EFE645F6D09C420FD943
:101028005D441D44A942E8D2009908EB090001F08B
:10103800A7FB8144A9EB0401A9429ED35445DED8FD
:10104800BAF1000FC0D005EB0A0007EB0A024044D2
:1010580001E0BB42B8D012F801ED10F801CD1346FB
:10106800E645F6D0019B1D44C5E75346A1E700BFFE
:101078002DE9F04FADF21C4D934680468A4605AAED
:10108800194658461C46FFF7C9FE134681460DF21D
:10109800144243F8044F9342FBD174B1601E0BF124
:1010A800FF3206AD584412F8011FA31A824203F119
:1010B800FF335B4445F82130F5D1059B4A46584635
:1010C8000BEB0301019301F02DFB002877D144F4C9
:1010D80000630746AAEB040E661E05460293AE455A
:1010E80010D308EB050C06AA1CF8063052F823307A
:1010F800BBB11FB1019A9A4288BFA31A1D440027A9
:10110800AE45EED208EB0A00029901F039FB8244A1
:10111800AAEB040EAE45E4D200200DF21C4DBDE84A
:10112800F08F4F453B4638BF4B469E4218D9591E53
:10113800EA1800955944424402E001339E420ED019
:1011480012F8010B11F8015F8542F6D09E42009D0E
:1011580006D9C9F1010200272A44D518BFE7009D26
:101168004F4509F1FF3380F0818005EB09020BEB55
:10117800090100954244CDF80C9002E09F4213D03B
:101188004B4611F8015D03F1FF3912F8010D854254
:10119800F4D0009D0133DDF80C9001379F4209D847
:1011A800019B1D44E71A9AE70137009DDDF80C9072
:1011B8009F42F5D960460DF21C4DBDE8F08FA4EBB7
:1011C80009030025AAEB040E661E4B4538BF4B46A3
:1011D80001330193059344F400630093AE4509D3AA
:1011E80008EB050006AA835D52F823306BB11D4455
:1011F800AE45F5D208EB0A00009901F0C1FA824425
:10120800AAEB040EAE45EBD286E7B14517D209F139
:10121800FF3105EB09024B465944424402E00133D1
:10122800B3420CD012F8017B11F801CFBC45F6D0BF
:101238009E4204D9C9F101022A44D518CEE7B9F172
:10124800000F3FF46AAF05EB09010BEB09024144BB
:1012580002E05B453FF461AF12F801CD11F8017D62
:101268001346BC45F5D0019B1D44C1E74B4694E7A6
:101278002DE9F0410D46097890B00446002954D074
:101288006A78002A75D0AB78002B52D0E8782E689F
:10129800002800F085802B79002B6FD0284600F0BD
:1012A80081F90646204646F4007101F069FA864243
:1012B8004ED8FE2E00F28F80801B4022711C27180A
:1012C800684600F0BDFB86B16A1E5FFA86FC90197D
:1012D80012F8013F03F03F03A91A824203F14003C9
:1012E80061446B4403F8401CF2D1013CA35D03F058
:1012F8003F0340336B4413F8403C1C44A74203D2DD
:101308002BE04444A74228D314F806C032462946A5
:1013180020460CF03F0C0CF140030DEB030C1CF8BD
:10132800408C01F0FFF90028EBD1204610B0BDE851
:10133800F081007842EA014250B140EA0343214675
:1013480014F8010F9A4244D00028F6D19A4240D0AE
:101358000024204610B0BDE8F081BB5DB819002B11
:10136800F6D04FF4006101F00BFA0744A742BCD253
:10137800EEE710B0BDE8F04100F036B82278002A58
:10138800E6D031BA01E0994208D042EA0323204668
:1013980014F8012F002AF6D19942D9D1C41EC4E706
:1013A800120442EA0162217842EA03230029CFD0DD
:1013B800024600E049B141EA0200254614F8011F3F
:1013C800B3EB002F4FEA0022F4D19342C0D1AC1EF8
:1013D800ABE74C1EA9E7014633462A46204610B023
:1013E800BDE8F04144E600BF11F0FF01034600F0FC
:1013F800030239D08ABB10B501EB012E02680EEB4F
:101408000E4EA2F101338EEA020423EA0203A4F18C
:10141800013222EA0402134313F0803F0FD150F83F
:10142800044F84EA0E0CA4F10133ACF1013223EA33
:10143800040322EA0C02134313F0803FEFD0037831
:1014480023B936E010F8013F002B32D09942F9D188
:1014580010BD8A4228D09A0729D01A781846013335
:10146800002AF6D110467047CAB90268A2F10133C2
:1014780023EA020313F0803F08D150F8042FA2F1A9
:10148800013323EA020313F0803FF6D003785BB1FF
:1014980010F8013F002BFBD17047990705D018467B
:1014A80013F8012B002AF8D170471846DDE71846D3
:1014B800A1E7184610BD00BF10B500291B4C9AB013
:1014C80024682DDB009004904FF40270ADF80C00F6
:1014D8004FF00000199013D001394FF6FF700291B8
:1014E80005916946ADF80E00204600F06FF9421CE0
:1014F80001DA8B232360009B00221A701AB010BDFA
:101508004FF6FF70029105916946ADF80E0020462E
:1015180000F05CF9431C01DA8B2323601AB010BD7C
:101528008B234FF0FF302360F8E700BF0000002056
:1015380030B514469BB00546002C2EDB1A464FF4F6
:1015480002730091ADF80C304FF000030491199329
:1015580013D04FF6FF73013C6946ADF80E301E9B61
:101568000294059400F032F9421C01DA8B232B60B7
:10157800009B00221A701BB030BD4FF6FF736946FE
:101588000294ADF80E301E9B059400F01FF9431C21
:1015980001DA8B232B601BB030BD8B234FF0FF305B
:1015A8002B60F8E720F0030110F00300C0F1000001
:1015B80051F8043B00F1040C4FEACC0C6FF0000228
:1015C8001CBF22FA0CF213434FF0010C4CEA0C2C0E
:1015D8004CEA0C4CA3EB0C0222EA030212EACC12EE
:1015E80004BF51F8043B0430F4D0C2F1000102EA10
:1015F8000102B2FA82F2C2F11F0200EBD200704778
:101608002DE9F0478E6881460C461D469E4290465D
:10161800086836D8B1F90C3013F4906F0DD13546FF
:101628002A46414600F05CFBA26823680020921B12
:101638002B44A2602360BDE8F0876769096917EB4E
:101648004707A0EB010A05F1010048BF01375044E4
:101658007F10B8423A4601D9074602465B0512D5C3
:101668001146484600F068FA0646F8B15246216924
:1016780000F0B6FBA38923F4906343F08003A381B1
:1016880006E01E46CCE7484600F052FC064648B144
:1016980006EB0A00A7EB0A0326612E466761A360E2
:1016A8002060BDE72169484600F0C6FAA3890C22EC
:1016B8004FF0FF3043F04003C9F80020A381BAE798
:1016C80093682DE9F04F924683B01768002B75D0C8
:1016D8004FF0000B81460C468B680A685D4647E070
:1016E800B4F90C3013F4906F2ED0D4E9041616EB2D
:1016F8004606A2EB010848BF013608F10100761042
:101708002844B042324601D9064602465B0539D51F
:101718001146484600F010FA019000283CD0424695
:10172800216900F05DFBA289019B22F4906242F0DE
:101738008002A281A6EB080203EB08006661A846B6
:101748002E46A260236120603246594600F0C8FA4E
:10175800DAF80810A3682268491BA3EB080332448F
:10176800A3602260CAF8081041B3D7E900B508376A
:1017780098461046002DF8D09D421E46B0D2A84685
:101788002E46E1E7484600F0D3FB03460028D1D1B6
:101798002169484600F050FAA3890C224FF0FF3027
:1017A80043F04003C9F800200022A3810023CAF8AF
:1017B8000820CAF8043003B0BDE8F08F00200023E9
:1017C800CAF8043003B0BDE8F08F00BF2DE9F04F30
:1017D8001C468B899FB089461D068246934603D5D1
:1017E8000B69002B00F0E78000237C4E012705944D
:1017F8000B9343F22003ADF831309BF800205D468F
:1018080052B1252A08D02C4615F8012F0AB1252AED
:10181800F9D1B5EB0B0360D1002A6DD000234FF04E
:10182800FF320135069309938DF85B301C93CDE99F
:10183800072305E0801B254607FA00F003430693BB
:101848002C460522304614F8011B00F095FE069B35
:10185800A3460028EED1D90602D520228DF85B20B8
:101868001A0702D52B228DF85B2029782A294BD11B
:10187800059A111D1268002A059175DB099269788D
:101888002E2955D0564C0322204600F075FE38B15B
:10189800001B4022069B0BF1010B82401343069369
:1018A8001BF8011B06224F488DF8301000F064FE2B
:1018B80000285FD04C4B002B4FD005AC4B4B4A4611
:1018C80006A950460094AFF300808046B8F1FF3F68
:1018D80012D00B9B43440B938FE75A464946504618
:1018E8000393FFF78DFE013006D00B9A039B1A4431
:1018F8000B926278002A91D1B9F80C305B0669D452
:101908000B981FB0BDE8F08FA1F13002092A50D81A
:10191800099B00E00134217803EB830302EB4303C6
:10192800A1F13002092AF5D92E29A3460993A9D194
:101938009BF801102A2927D1059B0BF10202191DDA
:101948001B68002B07930591B8BF4FF0FF339BF836
:1019580002109346B8BF079394E7059B073323F01B
:10196800070308330593B4E7524243F00203099290
:10197800069384E705A81D4B4A4606A900905046E1
:1019880000F096FB8046A1E7A1F1300200230BF19D
:10199800010B092A07933FF675AF03EB83031BF886
:1019A800011F02EB4303A1F13002092AF5D907937D
:1019B80068E7AB4664E7402100F0BEF8C9F80000CC
:1019C800C9F8100018B14023C9F814300CE70C23EB
:1019D800CAF800304FF0FF3093E700BFC893010802
:1019E800D0930108D49301080000000009160008EC
:1019F8000F4B70B50F4DAB42A3EB050607D0B610E1
:101A08000024013455F8043B9847A642F9D80A4DFA
:101A180012F0F2FF094B5E1BAB424FEAA60606D056
:101A28000024013455F8043B9847A642F9D870BD04
:101A38005CA701085CA701085CA7010860A701086A
:101A480070B5860747D0541E002A3ED0CAB2034656
:101A580001E0013C39D303F8012B9D07F9D1032C90
:101A68002CD9CDB20F2C05EB052505EB054535D94D
:101A7800A4F1100C03F1100E1A462CF00F064FEAD1
:101A88001C1CB644C2E90055C2E902551032724521
:101A9800F8D10CF1010214F00C0F04F00F0C03EB59
:101AA800021213D0ACF1040323F0030304331344EC
:101AB80042F8045B9342FBD10CF003042CB1C9B289
:101AC8001C4403F8011BA342FBD170BD64461346B6
:101AD800002CF4D1F9E703461446C0E71A46A44699
:101AE800E0E700BF014B1868704700BF0000002006
:101AF80070B5104E05460C463368B3B121462846EA
:101B080000F050FE431C0CD0C41C24F00304A04277
:101B180005D0211A284600F045FE013001D02046A4
:101B280070BD4FF0FF34204670BD194600F03AFEF4
:101B38003060E3E7BC0000202DE9F843CD1C0646E1
:101B480025F0030508350C2D38BF0C25002D2EDB9C
:101B5800A9422CD8DFF8DC8000F0ECFBD8F8042090
:101B68007AB1144603E0636822461C464BB12368E9
:101B78005B1BF8D40B2B1ED89442636853D0536078
:101B880007E029463046FFF7B3FF431C04461DD043
:101B98000560304600F0D0FB04F10B00231D20F057
:101BA8000700C21A01D01B1AA350BDE8F8830C2302
:101BB80033600020F9E761199442256014BF516031
:101BC800C8F80410635163684B60E2E7D8F8047002
:101BD8001FB33C467F68002FFBD123683946304647
:101BE80004EB030900F0DEFD814516D12368304679
:101BF800ED1A2946FFF77CFF01300ED02368D8F88C
:101C080004202B442360536883B1A34203D01A46AF
:101C18005B689C42FBD10023B1E70C23304633605C
:101C280000F08AFBC5E7C8F80430B2E7C8F80470CA
:101C3800AFE700BFBC00002000293AD038B551F802
:101C4800043C0C1F0546002BB8BFE41800F072FBDB
:101C5800224A1368D3B1A34214D81A465B680BB161
:101C6800A342FAD911685018A04223D02ED821686F
:101C78006018834211D0636054602846BDE838403C
:101C880000F05ABB2168601883420DD02846636073
:101C98001460BDE8384000F04FBB18685B68084422
:101CA800C4E900035460E8E718685B6808442060EA
:101CB800ECE7704720680144501811608342DCD17A
:101CC800D3E900040144C2E90014D6E70C232846EE
:101CD8002B60BDE8384000F02FBB00BFC0000020DB
:101CE80088420ED98B1883420BD900EB020C002ACC
:101CF8006ED0624613F801CD994202F801CDF9D1B0
:101D080070470F2A0FD8034602F1FF3C002A5FD024
:101D18000CF1010C013B8C4411F8012B614503F8CF
:101D2800012FF9D1704740EA01039B0751D1A2F175
:101D3800100301F1200C70B523F00F0501F1100E0E
:101D480000F110041B09AC445EF8105C0EF1100E93
:101D5800103444F8205C5EF81C5C44F81C5C5EF8A7
:101D6800185C44F8185C5EF8145CE64544F8145CAA
:101D7800EAD1013312F00C0F02F00F0C01EB031142
:101D880000EB031329D0ACF1040C1C1F8E462CF079
:101D980003064FEA9C0C1E445EF8045B44F8045F9B
:101DA800B442F9D10CF1010402F0030203EB8403FD
:101DB80001EB840102F1FF3C4AB10CF1010C013B3B
:101DC8008C4411F8012B614503F8012FF9D170BD3E
:101DD800704702F1FF3C03469AE76246EAE700BF14
:101DE800844641EA000313F0030349D1403A23D360
:101DF8000B6803604B6843608B688360CB68C36083
:101E08000B6903614B6943618B698361CB69C3616A
:101E18000B6A03624B6A43628B6A8362CB6AC36252
:101E28000B6B03634B6B43638B6B8363CB6BC3633A
:101E380040304031403ADBD230320BD30B6803607C
:101E48004B6843608B688360CB68C3601030103187
:101E5800103AF3D20C3205D351F8043B40F8043B56
:101E6800043AF9D2043208D0D2071CBF11F8013B5A
:101E780000F8013B01D30B8803806046704700BF20
:101E8800082A13D38B07B1D010F00303AED0C3F1E7
:101E98000403D21ADB071CBF11F8013B00F8013B11
:101EA800A4D331F8023B20F8023B9FE7043AD9D388
:101EB800013A11F8013B00F8013BF9D20B780370A5
:101EC8004B7843708B7883706046704740EA010313
:101ED8009B0730B501D1032A17D8844601F1FF3E8C
:101EE80007E01EF8011F541E03F8011B29B1224602
:101EF8009C466346002AF4D130BD002CFCD09444A3
:101F080003F8011B6345FBD130BD0C4684462568A8
:101F180021460434A5F1013323EA050313F0803F79
:101F2800DCD1043A4CF8045B032AF0D82146D5E703
:101F38002DE9F041144641B30AB306460D4600F0B8
:101F480043FC8442074602D8B4EB500F13D821460D
:101F58003046FFF7F1FD804650B1BC422246294683
:101F680028BF3A46FFF73CFF29463046FFF764FE94
:101F78004046BDE8F081A8464046BDE8F081A0464D
:101F8800FFF75AFE4046BDE8F0811146BDE8F04132
:101F9800FFF7D2BD2DE9F84F92461F460A690C4655
:101FA8008B680646DDF828909A42B8BF1A46CAF8E8
:101FB800002091F8433013B10132CAF8002022689A
:101FC80091065DD5DAF800300233CAF8003022688D
:101FD80012F0060F11461BD1E168994266DD4FF0F9
:101FE800000804F1190B05E0E568DAF80030ED1A8D
:101FF80045450CDD01235A4639463046C84701306D
:1020080008F10108F0D14FF0FF30BDE8F88F2168E2
:1020180094F84330003B18BF01238A060AD5E1181B
:102028005A1C30200233224481F8430094F84510AA
:1020380082F8431004F1430239463046C84701305C
:10204800E1D02368DAF8005003F006032169042B75
:10205800D4E902201BD08A4220DD4FF00008521A32
:1020680090441A34002501E0454517DA0123224639
:1020780039463046C847013005F10105F4D1C2E7B9
:1020880012F0060F0DD0003B18BF0123D2E7401B0A
:102098008A4220EAE078E2DC0028E2DC0020BDE8A1
:1020A800F88FDAF80030E168994298DC1146AFE71A
:1020B8002DE9F047174684B00A7E0C460646984636
:1020C8000C9D01F1430C002A35D0A2F15803D9B276
:1020D800202969D8202B67D8DFE813F0E6006600CE
:1020E80066006600660066006600660066006600B8
:1020F8006600AC007000660066006600660070004E
:10210800660066006600660021008300C60066005F
:102118006600B6006600830066006600EC002B6867
:102128002268181D6169286010061B6802D45206CF
:1021380000F1E08019600023E14623613B4603AAD1
:1021480021463046CDF80080FFF724FF013020D02B
:102158004A46236939463046C047013019D02368BA
:10216800E0689B07DDF80C9018D5484516DD00257A
:1021780004F1190A04E0E068A0EB0903AB420DDDA5
:102188000123524639463046C047013005F1010562
:10219800F1D14FF0FF3004B0BDE8F0874845B8BF33
:1021A800484604B0BDE8F087012004F1420984F8EC
:1021B80042200023206184F84330BFE72A6823685F
:1021C800111D1806296002D4590600F1958010687F
:1021D800014600286268C0F2938054484FF00A0E06
:1021E80015E020682B6810F0800F53F8041B02D10B
:1021F800400648BF89B26F2A4C482B6014BF4FF085
:102208000A0E4FF0080E0023626884F84330002A53
:10221800A26051DB236823F00403236000294BD11B
:10222800002A7BD1E146BEF1080F56D0ACEB09037A
:10223800236183E72A6804F142090120111D12680D
:10224800296084F84220B4E72B6800216268181DD1
:102258002860D3F80090484600F08EF9002863D033
:10226800A0EB09006060A4E7236843F02003236023
:1022780078222F4884F845202A6813F0800F52F8F6
:10228800041B03D113F0400F18BF89B22A60DA0784
:1022980002D543F02003236019B9236823F02003F3
:1022A80023604FF0100EAEE75823204884F84530DD
:1022B8002368E1E72368DBE77546E1460A46B1FB98
:1022C800F5F305FB131AAA42194610F80A3009F863
:1022D800013DF3D2BEF1080FA8D12368DD07A5D5CB
:1022E800626823699A42A1DC302309F1FF3989F831
:1022F80000309BE719801EE7B2F90010084668E72E
:102308002D20002AA26084F8430002DB23F0040396
:1023180023600A2549420548AE46CEE7037804F112
:10232800420984F842307EE7606842E7DC9301089E
:10233800F0930108704700BF704700BFCAB38446D6
:102348000B4630B504460843800719D09CF80000B6
:102358000C78A04212D150B3012A28D0E64603E0F7
:102368001CEB030F23D010B31EF8010F11F8014F17
:10237800A2EB0E03A04203F1FF33F1D0001B30BDE6
:10238800032A07D8E2E7043A11D01EF0803F0ED1A5
:10239800032A10D92068194653F8045BA446A0F113
:1023A800013E0434A8422EEA000EECD0CEE700200D
:1023B80030BD10467047A4461946C7E780EA010CAD
:1023C8001CF0030F37D110F0030C20F0030021F0AC
:1023D800030150F8042B08BF51F8043B0ED08CF0D1
:1023E800030C6FF07F434FEACC0C23FA0CFC51F836
:1023F800043B42EA0C0243EA0C0300BFA2F1013C91
:102408009A4201BF2CEA020C1CF0803F50F8042BC2
:1024180051F8043BF2D04FEA02604FEA1222012839
:1024280028BFB0EB036F08BF1B0AF4D003F0FF030B
:10243800000EC01A704710F0030F0AD010F8012BD5
:1024480011F8013B012A28BF9A42F4D0A2EB0300FD
:1024580070474DF8045D50F8042B01F0030521F096
:10246800030151F8043B022D26D04DD822F07F45B8
:10247800B5EB132FA2F1013C2CEA020C0DD11CF094
:10248800803C08BF51F8043B0AD185EA0205B5EB48
:10249800036F0CD150F8042BE8E74FEA13235BE0F5
:1024A8003CF07F4C54D10B784FEA126554E04FEA68
:1024B800126503F0FF034FE04FEA0245A2F1013C29
:1024C8004FEA15452CEA020CB5EB134F18D11CF056
:1024D800803C08BF51F8043B07D185EA0205B5EBFB
:1024E800034F09D150F8042BE6E75FEA0C4C2FD1D3
:1024F8000B884FEA12452FE04FEA03434FEA124593
:102508004FEA134328E000BF02F0FF05B5EB136F55
:10251800A2F1013C2CEA020C0DD11CF0803C08BF52
:1025280051F8043B0AD185EA0205B5EB032F0AD11D
:1025380050F8042BE8E74FEA13630DE012F0FF0FA1
:1025480006D051F8043B4FEA122523F07F4303E0FD
:102558004FF0000020BC704705F0FF0203F0FF00B9
:10256800012828BF904204BF2D0A1B0AF4D0A2EB11
:10257800000020BC704700BF5FFA81FC810744D08F
:102588000346511E22B909E09A0709D0013905D33B
:102598001846013302786245F6D17047002070472B
:1025A800184603290CD80029F8D00346014401E055
:1025B8008B42F3D0184613F8012B6245F8D17047C7
:1025C80010B50CEB0C24024604EB044402E0043979
:1025D800032915D9104652F8043B6340A3F1013E84
:1025E8002EEA030313F0803FF1D00346014401E0D3
:1025F8008B4208D0184613F8012B6245F8D110BD5C
:1026080010460029F1D1002010BD1146C9E700BFCE
:10261800002A08B410B504469DB036DB4FF40273A7
:1026280002910691ADF814304FF000031B9320ABD4
:1026380017D0013A4FF6FF71019304920792ADF853
:10264800161002A91F9AFFF7C1F8421C01DA8B2362
:102658002360029B00221A701DB0BDE8104001B033
:1026680070474FF6FF7104920792ADF8161002A951
:102678001F9A0193FFF7AAF8431C01DA8B23236002
:102688001DB0BDE8104001B070478B234FF0FF30FC
:102698002360F5E70CB40029214B10B51C689CB0E9
:1026A80038DB4FF000034FF4027202901B931FAB0C
:1026B8000690ADF8142018D001394FF6FF701E9A15
:1026C8000491079102A9ADF8160020460193FFF77F
:1026D8007DF8421C01DA8B232360029B00221A70CA
:1026E8001CB0BDE8104002B070474FF6FF7004916F
:1026F800079102A9ADF8160020461E9A0193FFF72C
:1027080065F8431C01DA8B2323601CB0BDE8104038
:1027180002B070478B234FF0FF302360F5E700BF0E
:1027280000000020032A30B415D941EA0004844689
:102738000B46A40704D0541E0FE0043A032A08D914
:102748001946604653F8044B5CF8045BA542F4D084
:10275800F1E760461946541E7AB1431E0139021941
:1027680001E09A4209D013F8010F11F801CF604532
:10277800F7D0A0EB0C0030BC7047002030BC70478D
:1027880071B1034600EB010C01E0634506D01A461F
:10279800013311780029F8D1101A7047181A7047B8
:1027A8000846704738B50022064D044608462A6098
:1027B80000F030FA431C00D038BD2B68002BFBD04A
:1027C800236038BD0002002051F8043C002BA3F11F
:1027D800040000DB70470B581844704772B6FEE7D8
:1027E80000B59FB06022002106A8FFF729F9002351
:1027F8000093019302930393049305934FF440309D
:1028080010F08CFA00282BD11022069201230D9388
:102818000E9200210F910222149215934FF400504A
:102828001790032016900A20189019921A921B9359
:102838000C231C931D9106A80BF0E8FF90B91F23E9
:1028480000930323019300230293039304930593B6
:10285800042168460CF0B6FE30B91FB05DF804FBE1
:10286800FFF7BCFFFFF7BAFFFFF7B8FF08B50BF09B
:102878001BFFFFF7B5FF00F009F800F02DF900F095
:1028880087F800F08DF800F0D3FBFEE72DE9F04162
:1028980088B0002403940494059406940794384B54
:1028A800D3F88C2042F00402C3F88C20D3F88C2093
:1028B80002F004020092009AD3F88C2042F0010240
:1028C800C3F88C20D3F88C2002F001020192019AFF
:1028D800D3F88C2042F00202C3F88C20D3F88C3055
:1028E80003F002030293029BDFF8A0802246022134
:1028F800404610F0FBF9234F22464FF480613846DA
:1029080010F0F4F9204E22468021304610F0EEF9FE
:1029180042F2412303930494059403A930460FF02F
:10292800EDFF012503950494059403A940460FF093
:10293800E5FF0223039304950594069403A94046F2
:102948000FF0DCFF112303930494059403A9384680
:102958000FF0D4FF4FF48063039304950594069415
:1029680003A938460FF0CAFF802303930495059402
:10297800069403A930460FF0C1FF08B0BDE8F08106
:10298800000C024600040242000802420000024213
:1029980008B510F04FFA00B908BDFFF71FFFFBE7B5
:1029A80000B585B000230193029303931A481B4A8C
:1029B80002604FF48002426083600721C1600361B6
:1029C80043614FF0806282614FF08042C2610362CE
:1029D80043628362C16242638363C3638364C36483
:1029E800036543658365C365036610F0ADFA68B98E
:1029F800002301934FF080520292039301A90648E5
:102A080011F015FA28B905B05DF804FBFFF7E6FEEA
:102A1800EEE7FFF7E3FEF6E704020020003001408E
:102A2800F0B5B9B00446002133913491359136910F
:102A38003791C02202A8FFF703F82268234B9A4275
:102A480001D039B0F0BD4FF400020023CDE90223D4
:102A58004FF480132D9302A80DF084F9002832D189
:102A68001B4BD3F8A42042F48052C3F8A420D3F817
:102A7800A42002F480520092009AD3F88C2042F0ED
:102A88000102C3F88C20D3F88C3003F001030193C2
:102A9800019BA02333930227349700243594032302
:102AA8003693052637960B4D33A928460FF026FF97
:102AB80040233393349735943694379633A9284670
:102AC8000FF01CFFBDE7FFF789FEC9E700300140A2
:102AD800000C02460000024208B51748174B036075
:102AE8004FF4E133436000238360C36003610C2229
:102AF80042618361C36103624362836211F0D8F962
:102B080070B900210C4811F0ADFE60B900210A48E7
:102B180011F0E6FE50B9084811F06BFE48B908BD3F
:102B2800FFF75CFEEDE7FFF759FEEFE7FFF756FE0C
:102B3800F1E7FFF753FEF2E7940200200038014066
:102B480010B5B8B0044600213391349135913691CF
:102B58003791C02202A8FEF773FF22681B4B9A42E6
:102B680001D038B010BD01220023CDE9022302A80C
:102B78000DF0F8F838BB164BD3F8A42042F4804285
:102B8800C3F8A420D3F8A42002F480420092009A4B
:102B9800D3F88C2042F00102C3F88C20D3F88C3093
:102BA80003F001030193019B4FF4C06333930223A5
:102BB80034930023359336930723379333A9054875
:102BC8000FF09CFECDE7FFF709FED4E7003801407F
:102BD800000C024600000242FEE7FEE7FEE7FEE7C1
:102BE800FEE770477047704708B507F007FB08BD58
:102BF80082B0074BD3F8942042F00402C3F8942023
:102C0800D3F8943003F004030193019B02B070479A
:102C1800000C024610B503460C4A0D490D480068E1
:102C280040B10C4800680344521A934206D8094A36
:102C3800136010BD0748084C0460F2E7FEF752FF26
:102C48000C2303604FF0FF30F3E700BF00000420BF
:102C58000004000028030020E07F03200D4885467B
:102C68000BF082FB0C480D490D4A002302E0D458B2
:102C7800C4500433C4188C42F9D30A4A0A4C0023BE
:102C880001E013600432A242FBD3FEF7B1FEFFF766
:102C9800EDFDFEE700000420000000209400002065
:102CA80064A70108940000209C7F0320FEE7000031
:102CB80008B506F099FD06F0B1FD012801D0002005
:102CC80008BD06F07BFD034B53F8201002480BF0BB
:102CD800C1FAF4E73C940108F04C010810B501284A
:102CE8001BDD4C6820492046FFF768FB90B11F495F
:102CF8002046FFF763FB38B31D492046FFF75EFB0C
:102D080030B31C492046FFF759FB28BB032006F0C7
:102D1800F5FC02E0012006F0F1FC06F04FFD164B31
:102D280053F8201015480BF095FA06F04DFD0146B2
:102D380013480BF08FFA06F065FD98B11149124857
:102D48000BF088FA002010BD022006F0D7FCE4E75B
:102D5800042006F0D3FCE0E70C480BF07BFA4FF0B8
:102D6800FF30F0E70A49EAE71C780108044D01083A
:102D78000C4D0108144D010830940108F04C01086D
:102D8800444D0108FC4C0108544D01081C4D010834
:102D9800004D010808B506F071FC06F03FFD01285A
:102DA80001D0002008BD06F009FD034B53F82010A0
:102DB80002480BF04FFAF4E724940108F04C01089C
:102DC80038B501282EDD0B461A495868FFF7F6FA80
:102DD800044608B100251BE002F00BFE18B11648A6
:102DE8000BF038FA24E015480BF034FA4FF0FF34B2
:102DF8001EE02146284602F0E1FD02460134214644
:102E08000F480BF027FAE4B2022CF2D90135EDB2E3
:102E1800012D09D80B4B53F825100B480BF01AFA63
:102E28000024F1E70025F3E708480BF013FA002423
:102E3800204638BD604D01088C4D0108684D0108D9
:102E4800A44D01081C940108A04D0108B04D0108CB
:102E580008B507F08BF906F00DFE07F017F807F034
:102E680073FD06F097FE07F07FF808F0BBFA07F04D
:102E78002DFA06F023FF024807F096F908BD00BFB7
:102E88008D2E000808B507F039FA06F03BFF07F069
:102E980069FD08BD10B5002401E00134E4B2032C3B
:102EA8000DD81E4B13F8140006F054FF0028F4D078
:102EB8001A4B03EB4403587806F014FCEDE70020A6
:102EC80006F062FF98B9022006F05EFF98B9032069
:102ED80006F05AFF98B9012006F056FF98B9042069
:102EE80006F052FF98B907F035FA98B910BD0120DD
:102EF80006F004FCE7E7022006F000FCE7E7042000
:102F080006F0FCFBE7E7032006F0F8FBE7E706F02E
:102F1800B5FBE8E706F068FCE8E700BF1494010891
:102F28002DE9F04182B006F079FC044601F0ACFBD3
:102F3800054601F0A1FB064606F064FC284B1B7809
:102F4800834206D0264B1870B0B1264926480BF0AC
:102F580081F9264B1B78A34210D0A34217D1022C2B
:102F68001CD0032C2BD0214B1C70214B1D70214BE6
:102F78001E7002B0BDE8F0811F49E7E71C4A1278CD
:102F8800AA42EAD11B4A1278B242E6D1F1E71B4BBA
:102F980053F824101A480BF05DF9E0E706F014FC2A
:102FA800074606F035FC804601F05EFB019000966E
:102FB8002B464246394613480BF04CF9D3E701F04B
:102FC80053FB074601F048FB032806D00E4B2A4660
:102FD80039460E480BF03EF9C5E70D4BF7E700BF41
:102FE8002E030020D04D0108104E0108500000208B
:102FF8002D0300202C030020004D01080494010833
:10300800204E01082C4E01086C9101085C4E010805
:10301800F84D010808B506F093FA08F0F8FC08F036
:10302800C5FAFFF737FF06F0C1FAFFF779FFF4E7B3
:1030380000B5E9B0FFF70CFF08F0A2FC1E4C6825AC
:103048002A4621466846FEF7CBFE2A4661190DEB53
:103058000500FEF7C5FE2A4604F1D00134A8FEF7A4
:10306800BFFE2A4604F59C714EA8FEF7B9FE6846D5
:103078000BF07EF80DEB05000BF07AF834A80BF096
:1030880077F84EA80BF074F802F038FC0B480BF0F8
:10309800E1F806F041FF40B108F094FC48B1084857
:1030A8000BF0D8F808F0B3FCFCE706480BF0D2F8B0
:1030B800F2E7FFF7AFFF00BF184A0108784E010892
:1030C800144F0108CC4E010830B583B00191154664
:1030D800044648B1019805F083FA2080C0F30F40F8
:1030E8006080257103B030BD024A112102480BF0FF
:1030F80031F9EFE79C4F0108B04F010870B582B075
:103108000C461546064620B14CB175B9002002B0F0
:1031180070BD0B4A19210B480BF01CF9F4E70A4A59
:103128001A2108480BF016F9EFE72946306805F030
:1031380001FC01460190204605F072FAE7E700BF5E
:1031480000500108B04F01081450010870B50D4631
:103158001446064620B14DB174B90025284670BD05
:103168000E4A26210E480BF0F5F8F4E70D4A272100
:103178000B480BF0EFF8EFE734712246294630464A
:10318800FFF7BCFF05460028E8D02146306805F067
:10319800D1FB3080C0F30F407080DFE79C4F0108FF
:1031A800B04F01081450010810B582B0044660B150
:1031B800206801900020BDF8043063F30F00BDF8CB
:1031C800063063F31F4002B010BD034A3E21034896
:1031D8000BF0C0F8ECE700BF00500108B04F010841
:1031E80010B5044608B1207910BD034A45210348AB
:1031F8000BF0B0F8F7E700BF00500108B04F010826
:1032080000EB400330B149F6404000EB5300B0FBFF
:10321800F3F07047002070472DE9F0410C46064650
:1032280000284CD0002C50D0152E00D91526013E70
:10323800294FC6EBC60307EB830517F82300FFF7F2
:10324800DFFF20606878FFF7DBFF6060A878FFF792
:10325800D7FFA060E878FFF7D3FFE0602879FFF791
:10326800CFFF20616879FFF7CBFF6061A879FFF78E
:10327800C7FFA0612B89A383A87AFFF7C1FF20624B
:10328800AB89A384A87BFFF7BBFFA0626B8AA385E9
:10329800AB8AE385AB7D4FF47A7202FB03F32363B9
:1032A800EB7B02FB03F363632B7C84F83830AB6958
:1032B8001A7984F839201B68E363BDE8F081074A6E
:1032C800942107480BF046F8ACE7064A95210448D4
:1032D8000BF040F8A8E700BF489401082C500108FB
:1032E80050500108A850010810B5044620B1142C0C
:1032F80094BF0020012010BD024AB92102480BF0FA
:1033080029F8F4E72C50010850500108C2EBC2021A
:10331800920092B211441FFA81FC01F007010122C8
:103328008A40D2B23BB14FEADC0C10F80C301343A0
:1033380000F80C3070474FEADC0C10F80C3023EA28
:10334800020300F80C307047022903D0032906D085
:103358000020704700F58050B0F84C0D704700F51C
:103368008050B0F84E0D7047054B03FB010080EA12
:103378001040044B03FB00F080EAD030704700BFD8
:10338800B979379E2D35EB7F002118E00133DBB288
:103398001B2B12D8C1EBC10200EB82021A4492F82F
:1033A800902D022AF2D1C1EBC10200EB82021A442D
:1033B8004FF0010C82F890CDE8E70131C9B21E291F
:1033C80001D80023E4E7704701F56B6100EB410089
:1033D8008088704700F5805090F8A43D90F8592DEA
:1033E800934202D203F0010070470120704700F5B4
:1033F800805393F8A42D93F8593D9A4206D200F5CC
:103408008050D0F85C3D53F8220070470020704788
:1034180000F5805393F8842DD3F89C3D2BB97AB1ED
:1034280000F58050D0F8240D704722B100F5805087
:10343800D0F82C0D704700F58050D0F8280D704753
:1034480000F58050D0F8200D704740B14BB151B114
:103458001202B2FBF3F3FF2B07D8D8B27047FF2054
:103468007047FF207047FF207047FF20704700B566
:1034780085B0019010461A46BDF904308DF8083021
:10348800BDF906308DF809308DF80A10069BFFF754
:10349800DCFF8DF80B00029B039300209DF80C3095
:1034A80063F307009DF80D3063F30F209DF80E308D
:1034B80063F317409DF80F3063F31F6005B05DF8A4
:1034C80004FB000000F5805090F8583D4FF4FA7264
:1034D80003FB02F2D0F89C3D53B193420AD8064A46
:1034E800A2FB032313F0100F0CBF0120002070472C
:1034F8000020704700207047D34D621038B505464C
:1035080000F5ED5408344FF4807200212046FEF790
:1035180097FA102205F5F5510831204607F004FE08
:10352800214605F5A650083005F0E6FC204607F0D0
:103538002FFE38BD70B50646002401E00134E4B220
:10354800022C0ED8084B1D5D05EB850341F298400F
:1035580000EB43003044063001F08AFF0028EDD02C
:1035680000E00425284670BD0097010808B501EB66
:10357800810141F2984303EB41031844063001F0FE
:1035880067FF08BD38B504460D46FFF7D3FF03288B
:103598000AD804F58052D2F8983D2B44C2F8983DD9
:1035A800D2F8602D934200D238BD01462046FFF77D
:1035B800DDFF04F580540023C4F8983DF4E770B5A6
:1035C8000446FFF7B7FF04F580530022C3F8982D8F
:1035D800032811D8054693F8943D73B900F6C463DF
:1035E80004EB43035E880136B6B25E80014620468E
:1035F800FFF7EAFE864233D270BD04F58052B2F876
:10360800923D01339BB2A2F8923D1F2B10D804F5CE
:103618008053B3F8923D102B01D9022D1BD0062BF5
:10362800EAD9012DE8D129462046FFF79FFFE3E7B5
:1036380004F5A5501C3001F01BFF0028E7D003213A
:103648002046FFF793FF04F58054002384F8943D47
:10365800A4F8923DD0E729462046FFF787FFCBE73D
:1036680029462046FFF782FFC6E700F5805090F80C
:103678001C3D8BB181B1B1F57A6F0AD248080BD0E5
:1036880010B50C1A4000013006F062FC21180846FB
:1036980010BD4FF4FA60F3E70846704738B50446A2
:1036A80000F58053D3F89C3D9BB900F5805393F8FF
:1036B800A42D93F8593D9A4212D200F58053D3F8BD
:1036C800A03D8B420FD900F580545B1AC4F8A03D89
:1036D80006E08B4205D95B1A04F58054C4F89C3D7A
:1036E80038BD0023F8E700F58055013285F8A42D90
:1036F800FFF77DFE01462046FFF7B7FFC5F8A00D8E
:10370800EEE7F0B583B0054605F042F801460190B2
:1037180005F5A450163004F019F9002422E02146DA
:10372800284605F055F80146009004EB840341F261
:10373800984606EB43062E440636284605F094F8CC
:103748000346009A2146304601F05AFE04F25C73A3
:1037580005EB830300225A60291941F68653CA549F
:103768000134E4B2032CDAD905F580560024C6F8F2
:10377800704D86F8844D86F8854DC6F8984DC6F884
:103788009C4D86F8A44DD6F85C3D19682846FFF78D
:103798006CFFC6F8A00DD6F8501D2846FFF765FF48
:1037A800C6F8600D07E0012607F56B6705EB4707CC
:1037B800BE800134E4B2032C1BD821462846FFF70B
:1037C800C3FD0646274604F56B6305EB4303988063
:1037D80005F5805393F81C3D002BEAD00028E8D06B
:1037E800072006F0B5FB0644033E002EDBDDB6B22B
:1037F800DAE703B0F0BD70B506460C4600F5805513
:1038080085F8191D00F5E9512046FFF705FD95F8E3
:1038180094347BB106F588510C31304604F0B2FE81
:1038280006F5805393F81D3D83B13046FFF769FFD5
:10383800002317E02146D5F89004FFF795FD0146CF
:1038480006F588500C3004F057F8E3E73046FFF7E8
:103858009BFDEAE703F6C46206EB420200215180B1
:103868000133DBB2032BF5D906F580530024A3F806
:10387800924D83F8944D04E0284601F0E9FD0134A7
:10388800E4B2032C13D804EB840341F2984505EB0A
:10389800430535440635284601F0EAFD0028EED0F8
:1038A80021463046FFF790FD0028E8D1E4E770BDD7
:1038B80010B50446FFF722FE04F58053032283F86F
:1038C8001A2D012183F8181D0022A3F86C2D20461B
:1038D800FFF791FF10BD000010B5044600F58053B6
:1038E80093F81A3D63B104F5805292F81A3D013BF2
:1038F800DBB282F81A3D53B9022382F8183D10BD95
:10390800094A40F20B2109480AF024FDEBE720465A
:10391800FFF7F7FE04F58054012384F8943D002353
:10392800A4F8923DEBE700BFC0500108D850010849
:1039380010B5044604F010FF04F58053B3F8443D75
:10394800834207D204F58054B4F83C3D834203D245
:10395800002010BD0220FCE70120FAE72DE9F04124
:10396800054600F58053D3F89C7DFFF733FD0646E6
:103978002846FFF7DDFF804600240DE031468CB174
:1039880004EB840241F2984303EB42032B44981D55
:1039980001F0BAFD0134E4B2032C0AD8002FEDD0AF
:1039A8000221ECE7B8F1000FEAD00029E8D10121A3
:1039B800E6E7BDE8F0810000F0B5C3B006460F4663
:1039C80014461D464FF48272002101A8FEF738F80C
:1039D8008DF80470ADF8065024B12A46214602A895
:1039E800FEF7FEF901A906F5ED50083007F04EFC88
:1039F80008B943B0F0BD034A302103480AF0AAFCD5
:103A0800F7E700BF24510108D850010810B5044653
:103A180000F58053D3F8541DFFF727FE00B910BDF9
:103A280004F58052C2F89C0D2046FFF797FF00234B
:103A38001A460D212046FFF7BFFFF0E730B583B0E7
:103A4800044600F5A450163004F03EF801460190F3
:103A5800204604F045FE00238DF80030051E14BFF3
:103A680001221A4604F5805383F8842D01D103B04E
:103A780030BD2046FFF7A3FD022D14BF0020012012
:103A88008DF8000001236A460B212046FFF794FFBA
:103A98009DF80030002BEAD02046FFF7B7FFE6E795
:103AA80000B585B00390029101920093114604F08D
:103AB80092FF10B105B05DF804FB0099039804F07B
:103AC8008AFF08B90020F5E70299019804F083FFFE
:103AD80008B10120EEE70020ECE72DE9F04186B0BF
:103AE800019100F5805393F81B7D27B901273846CB
:103AF80006B0BDE8F0810546904600F5A4501630A2
:103B080003F0E2FF0390002617E005F58052B2F8B3
:103B18006C3D0133A2F86C3D00231A460C2128465F
:103B2800FFF74AFF0121284604F052FE014605909E
:103B3800204601F0CDFC0136F6B2032ED7D806EBAD
:103B4800860341F2984404EB43042C44063420468F
:103B580001F096FD0246049058F826300199039822
:103B6800FFF79EFF0028E6D0204601F0C9FD002897
:103B7800CBD12846FFF7B0FE05F5805595F8187D9E
:103B8800012F14BF00270127B1E738B5044604F018
:103B9800F7FD10B90125284638BD054604F58053C0
:103BA80093F8190DFFF7A0FB30B104F580540323F7
:103BB80084F8183D0025EEE704F5805393F8191DA5
:103BC8000131C9B22046FFF716FEE4E770B586B0AA
:103BD800054600F5A4541634204603F075FF0590F9
:103BE8002946204603F00EFF05F5805383F8850D1E
:103BF8002846FFF723FF002410E004EB840341F27A
:103C0800984000EB4300284406AB03EB84060630DB
:103C180001F036FD46F8140C0134E4B2032CECD95B
:103C280001AA05992846FFF758FF08B906B070BDE4
:103C38002846FFF7AAFFF9E72DE9F0418AB00546C3
:103C48000E4600F5A4541634204603F03DFF0890B4
:103C5800204603F057FF074605F5A4501E3001F033
:103C68000FFD0790002410E004EB840341F2984212
:103C780002EB43022A440AAB03EB8408901D01F0CF
:103C8800FFFC48F81C0C0134E4B2032CECD906EB19
:103C9800860341F2984404EB43042C440634079B02
:103CA80000933B46089A2946204601F097FC2E448B
:103CB80041F68653F054204601F0EAFB38B903AACE
:103CC80008992846FFF709FF0AB0BDE8F0812046A9
:103CD80001F0D6FC01460990284604F0C5FD0028ED
:103CE800EDD1204601F0E4FBE9E770B582B0054666
:103CF8000E4601EB810341F2984404EB430404446B
:103D08000634204601F0BCFC01460190284604F028
:103D1800A7FC28B105F58055D5F8340D02B070BD63
:103D2800204601F0EDFC28B94EB105F58055D5F8CF
:103D3800300DF3E705F58055D5F8380DEEE7284640
:103D4800FFF7F6FD022806D00128EED105F58055CB
:103D5800D5F8400DE2E705F58055D5F8480DDDE7C3
:103D680010B5044600F5ED50083007F0D3FA04F515
:103D7800A650083005F0FCF810BD0000F8B50D4657
:103D88000446C0B1F5B1AC4223D005F58053D3F851
:103D9800107D93F8146D42F6E86229462046FEF736
:103DA8001FF82046FFF7AAFB04F58054C4F8107DDD
:103DB80084F8146DF8BD0A4A40F2113109480AF036
:103DC800C9FADFE7084A40F2123106480AF0C2FA97
:103DD800D9E7064A40F2133102480AF0BBFAD4E7A1
:103DE80044510108D8500108585101086C51010884
:103DF80010B5044628B104F58054002384F81C3D0E
:103E080010BD034A4FF44C7102480AF0A3FAF2E7D6
:103E180084510108D850010810B5044620B1012387
:103E280023706370A37010BD034A40F25A310348EF
:103E38000AF090FAF3E700BF98510108D85001083A
:103E480038B50446C0B12046FFF758FB04F5805347
:103E5800002283F8182D83F81A2D0125C3F89054F1
:103E680083F8942404F5E8501B30FFF7D5FF294662
:103E78002046FFF7C0FC38BD034A40F237310348FB
:103E88000AF068FADFE700BF84510108D85001083A
:103E980070B50D461446064688B1BCB106F5805388
:103EA8002188A278A3F81B1D83F81D2DC3F8905410
:103EB800002283F894243046FFF7FAFC70BD074AC5
:103EC80040F26D3106480AF045FAE6E7054A40F245
:103ED8006E3103480AF03EFAE0E700BF845101085A
:103EE800D8500108AC51010830B583B00C460546DE
:103EF80048B101A8FFF790FF01AA21462846FFF71D
:103F0800C7FF03B030BD034A40F2633102480AF0EC
:103F180021FAEEE784510108D850010810B504468B
:103F280090B104F588500C3004F0FEFA04F5805383
:103F3800012283F8942404F5E8501B30FFF76CFF46
:103F48002046FFF7B5FC10BD034A4FF464710348DF
:103F58000AF000FAE5E700BF84510108D8500108CB
:103F680010B5044618B104F588500C3010BD034A4A
:103F78004FF4687102480AF0EDF9F4E7C0510108FE
:103F8800D850010810B5044608B1204610BD034AB0
:103F980040F2A73102480AF0DDF9F6E7C0510108FE
:103FA800D850010838B50C46054630B105F58053A0
:103FB80093F8183D012B07D038BD074A40F2AE31BF
:103FC80006480AF0C7F9F1E7214605F5A45016306E
:103FD80003F0D4FCF0E700BF84510108D850010871
:103FE80038B50D46044630B104F5805393F8183DB2
:103FF800012B07D038BD3F4A40F2BA313E480AF09B
:10400800A9F9F1E729462046FFF748FB294620464B
:10401800FFF7B8FA2046FFF7A1FC04F58052D2F862
:10402800703D2B44C2F8703D002308E003F25C7237
:1040380004EB82025168294451600133DBB2032B3F
:10404800F4D92046FFF7E4F900284CD004F5805352
:10405800D3F8703D834246D304F5805292F8182D68
:10406800012A40D104F580521B1AC2F8703D20463F
:10407800FFF7ACFDB8B32046FFF7CAF9E4E701350E
:10408800EDB204F5805393F81B3D73B3032D2CD880
:1040980004F5805393F8183D012B26D12946204674
:1040A800FFF723FE0028EAD02B4605F25C7204EBEA
:1040B800820252688242E2D304F5805191F8181DB9
:1040C8000129DCD103F25C7304EB8303121A5A60F2
:1040D80029462046FFF7B0FD0028D0D029462046C3
:1040E800FFF703FEDEE70025CBE72046FFF738FEA3
:1040F80080E700BF84510108D85001082DE9F04F2E
:1041080087B08846824630B3B8F1000F2AD0F8222B
:1041180000214046FDF794FC0AF5A45416342046C5
:1041280003F0D2FC0490204603F0ECFC04460AF5A8
:10413800805393F8855DD3F8706D5046FFF768F9A2
:10414800009033462A4621460498FFF790F9C8F8AC
:10415800000000240FE0474A40F2074146480AF0B1
:10416800F9F8D1E7454A4FF4816143480AF0F2F87B
:10417800CDE70134E4B2032C37D8A60004EB84035E
:1041880041F2984505EB430555440635284601F0AC
:1041980077FA0590284601F091FA07460AEB0403DE
:1041A80041F6865213F8029004F25C730AEB83031B
:1041B800D3F804B021465046FFF797FD46440090D7
:1041C8005B464A4639460598FFF751F9706028461C
:1041D80001F096FA0028CCD098F8F6200123A340E5
:1041E800DBB2134388F8F630C3E75046FFF76AF9A5
:1041F80088F8F700002724E0ADF80C40ADF80E7001
:104208000399504604F04CFAE6B2FDB28146031E0B
:1042180018BF01232A46314608F11400FFF776F843
:10422800B9F1020F14BF002301232A46314608F1D1
:104238008100FFF76BF8013424B21B2CDCDD013759
:104248003FB21E2F01DC0024F7E70AF5A65008301C
:1042580004F0A0FEC8F8F0000AF5805A9AF81A3D52
:1042680088F8F4309AF8193D88F8F53007B0BDE8B9
:10427800F08F00BFC0510108D8500108D051010883
:1042880030B583B00C460546B8B1032C1CD804EBF6
:10429800840441F2984303EB4403E818063001F024
:1042A800EFF901900020BDF8043063F30F00BDF86A
:1042B800063063F31F4003B030BD074A40F2334174
:1042C80006480AF047F8E0E7054A40F23441034857
:1042D8000AF040F8DBE700BFC0510108D8500108D8
:1042E800E451010838B50C46054660B1032C11D8D5
:1042F80004EB840441F2984303EB4403E8180630C6
:1043080001F0FEF938BD074A40F23B4106480AF081
:1043180021F8EBE7054A40F23C4103480AF01AF855
:10432800E6E700BFC0510108D8500108E451010870
:1043380010B5044620B104F5805494F8180D10BD4A
:10434800034A40F2434103480AF004F8F3E700BF88
:10435800C0510108D850010810B582B0044680B198
:1043680004F5A450163003F0AFFB01900020BDF80F
:10437800043063F30F00BDF8063063F31F4002B04A
:1043880010BD034A40F24A41024809F0E3FFE7E75B
:10439800C0510108D850010810B5044628B104F5E9
:1043A800A650083004F0F6FD10BD034A4FF48B61A7
:1043B800024809F0CFFFF2E7C0510108D8500108C0
:1043C80010B5044620B104F5805494F81A0D10BDB8
:1043D800034A40F25F41034809F0BCFFF3E700BF1E
:1043E800C0510108D850010810B5044620B104F5A1
:1043F800805494F8190D10BD034A40F266410348F1
:1044080009F0A8FFF3E700BFC0510108D850010820
:104418000C4B1B7823B102780B4B1B789A420AD0BD
:104428000123084A13700178074A11704178074A36
:104438001170184670474278044B1B789A42EFD1A6
:10444800002070472F030020310300203003002094
:1044580008B5044B01221A70034A1021034807F0DB
:1044680019F808BD35030020594400083803002016
:1044780008B50021034B1970034B1970034800F06D
:104488002DFE08BD320300202F0300204803002022
:1044980008B5FFF7BDFF48B9FA2003F0D5FE03F0D1
:1044A800E5FE01460548FFF77DFD08BD4FF47A6239
:1044B8000321024803F064FEEEE700BFE408002091
:1044C80008B5034B1B7803B908BDFFF7E1FFFBE70D
:1044D8003203002008B504F0A9FB0D48FFF7B0FC33
:1044E8000C4800F06BFD00230B4A13700B4A137045
:1044F8000B4B1B782BB10B4A10210B4806F0CAFF57
:1045080008BD074B01221A70074806F081FFF2E741
:10451800E40800204803002035030020340300206D
:1045280033030020594400083803002008B5014629
:104538000448FFF7D9FC044B00221A70FFF798FFD4
:1045480008BD00BFE40800203403002008B5044873
:10455800FFF7E4FC034B00221A70FFF789FF08BD40
:10456800E40800203403002008B5044B1B7803B18D
:1045780008BD01460248FFF715FDF9E732030020A0
:10458800E408002008B50146044B1870044B0022CB
:104598001A70044800F0A2FD012008BD3203002073
:1045A8002F0300204803002008B5FFF7EBFF08BDE4
:1045B80008B50146014800F07FFD08BD480300200A
:1045C800024B1878003818BF0120704732030020CA
:1045D80030B5DDB01C4B1C7814B920465DB030BD39
:1045E80000221A70194D10212846FFF7F9FC1EA960
:1045F8002846FFF783FD1EA8FFF762FF9DF86D317F
:10460800134A1278934204D11EA9124800F01EFDE5
:104618000DE00F4A13702846FFF7A2FC01460D482B
:1046280000F0E4FCF0E70B4800F06AFD48B101A98E
:10463800084800F03FFE0028F5D001A804F018FB58
:10464800F1E705F04FFFC8E735030020E408002034
:10465800340300204803002008B50248FFF768FE2D
:1046680008BD00BFE408002008B50248FFF794FE23
:1046780008BD00BFE408002008B50248FFF7A0FE07
:1046880008BD00BFE408002008B50248FFF7ACFEEB
:1046980008BD00BFE4080020C2EBC202920092B23B
:1046A80011441FFA81FC01F0070101228A40D2B2AD
:1046B8003BB14FEADC0C10F80C30134300F80C3017
:1046C80070474FEADC0C10F80C3023EA020300F8BC
:1046D8000C3070470A3880B2072805D80B2905DD49
:1046E800102905DD00207047002070470020704722
:1046F80001207047A0F10B039BB2052B0CD80C29A5
:1047080003DD0F2906DD002200E000220B2804D17A
:1047180001230DE00122F9E70022102807D00D2916
:104728000AD00F2901D0002302E0012300E0012371
:1047380022B12BB9002070470123F9E70020704708
:1047480001207047A1F10D039BB2012B12D80B2A4F
:1047580012DD0D2A12DC0BD0C2EBC20302EB83027E
:104768001044435C442B01D000207047012070475F
:1047780001207047002070470020704700207047D4
:104788004B1C9BB21D2B2FD870B50646B2F1FF3FCC
:104798002CDB1F2A2CDC00291EDB1B29A8BF1B21B0
:1047A8000D46002A1ADB1E2AA8BF1E221446C4EB97
:1047B800C40304EB830333445B5D232B10D02146F1
:1047C8002846FFF797FF68B9224629463046FFF783
:1047D800B9FF60B101200AE00025E2E70024E6E71E
:1047E800012004E0012002E000207047002070BD95
:1047F8000020FCE72DE9F84380469FB239440DB20A
:10480800BDF820904A4414B2002622462946404664
:10481800FFF7B6FF38B1013636B23D442DB24C44ED
:1048280024B2212EF1DD3046BDE8F883063800EBCE
:10483800D07040F34F00002802DB052802DC7047E7
:10484800002070470520FAE7884204DB05318142E1
:1048580003DA002070470020704701207047884223
:10486800A8BF084670478842B8BF084670472DE978
:10487800F04F83B007460E4615460093BDF9303019
:1048880001936FF001094FF00C0844E0BDF80010E7
:10489800ABEB0100A1EB0B01073909B200B2FFF73E
:1048A800E2FF01460020FFF7DEFF8346BDF8041053
:1048B800AAEB0100A1EB0A01073909B200B2FFF720
:1048C800D2FF01460020FFF7CEFF01465846FFF70A
:1048D800CAFF01464046FFF7C2FF8046013424B2B2
:1048E800022C14DCA4B24FEAC40B1FFA8BFB1FFA8C
:1048F80089F24FEAC20A1FFA8AFAA1192A4412B2A7
:1049080009B23846FFF73CFF0028BFD0E6E709F1B7
:1049180001030FFA83F9B9F1020F02DC6FF0010409
:10492800DEE7B8F1000F05DD08F1FF3318B203B078
:10493800BDE8F08F0020FAE72DE9F04F85B0054675
:104948000E4617469A464FF0FF39CDF800900023DF
:10495800FFF750FF1FFA80F84FEAC8081FFA88F8D7
:104968004FF0010BCDF800B000233A4631462846F7
:10497800FFF740FF83B2DB009BB20393002400944F
:104988004B463A4631462846FFF734FF1FFA80F96E
:104998004FEAC9091FFA89F900945B463A4631463D
:1049A8002846FFF727FF83B2DB009BB209EB030021
:1049B80080B2083000B2FFF739FF8146039B08EB4D
:1049C800030080B2083000B2FFF730FF01464846C6
:1049D800FFF745FF81461DE008F101080FFA88F846
:1049E800B8F1070F12DC009443463A463146284690
:1049F800FFF73DFF4946FFF727FF0028ECD080234B
:104A080023FA08F3DBB243EA0B0BE5E70AF804B034
:104A1800013424B2072C03DC4FF00008C346DFE75B
:104A280005B0BDE8F08F2DE9F84307460D4614465A
:104A38001E468BB21B2B06D8002A3CDB1E2A3DDD06
:104A48004FF0000801E04FF0000807F21329224652
:104A580029464846FFF794FE98BBB8F1000F09D0E5
:104A6800C4EBC40304EB83033B442B4493F8133295
:104A7800232B26D001233370B8F1000F35D007F16E
:104A88001403E4B2C4EBC404A400A4B254FA85F538
:104A9800C5F3CC02995C05F007050123AB40D8B2F9
:104AA8000B4222D08137BB5C184223D01523B37147
:104AB8000C23737015E04FF00008C6E74FF00108AB
:104AC800C3E703233370224629464846FFF73AFED8
:104AD80048B10A237370B31D224629464846FFF79A
:104AE8002BFFBDE8F8830923F4E71323B3710823E8
:104AF8007370F6E71423DAE7034690F8F401002808
:104B080040D000B593F8F1E193F8F5C0E6451FD120
:104B180003F11400C2EBC202920092B21144C1F335
:104B2800CC0C10F80C0001F0070101228A405FFA52
:104B380082FE024214BF0121002103F5887010F89B
:104B48000C00024214BF012200228A4202D0012036
:104B58005DF804FB03F1810212F80C201EEA020F33
:104B680014BF0122002203F27D1313F80C301EEA51
:104B7800030F14BF01230023934201D00120E7E76C
:104B88000020E5E7012070470022012304E003EB41
:104B980083035B000132D2B28A42F8D309B183425F
:104BA8000DD8B0FBF3F0074BA3FB0023DB0803EBA6
:104BB8008303A0EB4303D8B23030C0B27047202043
:104BC800704700BFCDCCCCCC2DE9F84381460D46CB
:104BD80017461E460C78C4EBC40801EB480808F1D8
:104BE8000208072C14D84346324639464846FFF790
:104BF8001AFF0137FF00C4EBC40305EB43039F8092
:104C08000336F600DE802B7801332B70BDE8F8837D
:104C1800034A40F2B311034809F09CFBE3E700BFE5
:104C2800045201083052010838B504460D4612E016
:104C3800164BA3FB0C231B09C3EB0312ACEB42027C
:104C4800013A0CF1010CA4F8F6C1013B12B2294655
:104C58002046FFF7B9FFB4F8F6C140F2DD339C45B2
:104C680002D82B78072BE3D940F2DD339C450BD9CA
:104C7800002384F8F831F822214604F1FC00FDF7FE
:104C8800AFF8012384F8F43138BD00BF89888888DB
:104C98002DE9F84F81468B46002601E00136B6B271
:104CA800B6F5597F4AD2B408254BA3FB0434C4EBAC
:104CB800C405A6EB85051FFA85FAEDB2A7B2E4B2E2
:104CC800224629464846FFF717FF0028E6D09BF8FA
:104CD8000030022B32D85FFA8AF8FFB23B464246D0
:104CE80059464846FFF770FF09F11403C7EBC70799
:104CF800BF00BFB2B844C8F3CC07DA5D08F00708B4
:104D0800012303FA08F35FFA83F8134214BF01235F
:104D180000232246294609F58870FFF7BDFC09F1F2
:104D28008103DB5D13EA080F14BF01230023224629
:104D3800294609F27D10FFF7AFFCAFE7BDE8F88F11
:104D4800254992242DE9F0410546884617461E4616
:104D58000478072C12D8C4EBC40005EB400080F897
:104D680002800772C670BDF918308380BDF91C3007
:104D7800C3802B7801332B70BDE8F081034A40F2E1
:104D88001D11034809F0E6FAE5E700BF04520108DF
:104D9800305201084FF0FF33C0F8F931C0F8FD3147
:104DA800C0F80132C0F80532C0F80932C0F80D3237
:104DB800A0F81132704770B50C4615461E4604F02F
:104DC80057FD3070049B0B221A700134E400059BD8
:104DD8001C80069B1D8070BDF0B585B005460C464D
:104DE80016461F4619291ED8022C23D9092C30D95A
:104DF8000E2C42D9102C52D9132C6BD8113CE4B28A
:104E080095F8F430A34261D903223270A3425FD9E6
:104E180000233B70240118340A9B1C804FF48C73C8
:104E28000B9A138013E0444A40F20A21434809F0E0
:104E380091FAD9E7E11C0B9B02930A9B0193009717
:104E480033460022C9B23E48005DFFF7B4FF05B003
:104E5800F0BD033CE4B2C4F10601C9B2D5F8F000D4
:104E6800FFF792FE0B9B02930A9B01930097334630
:104E780008222146FFF79FFFE9E7A4F10A00C0B224
:104E880004F10C010B9B02930A9B01930097334694
:104E98000022C9B22B4C205CFFF78DFFD7E7A4F1A5
:104EA8000F01C9B2C1F101010A34E4B2C9B295F8DF
:104EB800F500FFF769FE0B9B02930A9B019300978D
:104EC800334608222146FFF776FFC0E716229CE703
:104ED80008239EE7152C18D8A4F11403DBB295F823
:104EE8009725012A00D90022174951F82220A4F158
:104EF8000901D05C0B9B02930A9B019300973346F0
:104F08000022C9B2FFF757FFA1E7A4F11603DBB2ED
:104F180095F898256AB10D4AD05C0B9B02930A9BC1
:104F28000193009733464FF48C722146FFF743FFF5
:104F38008DE72020F1E700BF8852010830520108B0
:104F4800AC520108B052010804970108B852010890
:104F5800F0B585B006460F46002401E00134E4B2FE
:104F6800192C29D80DF10E03019303AB00930DF111
:104F78000B030DF10A0221463046FFF72DFF2546A7
:104F8800331993F8F9319DF80A209342E6D03B781B
:104F9800022B11D8BDF90E300193BDF90C300093E6
:104FA8009DF80B3001213846FFF7CCFE35449DF8BB
:104FB8000A3085F8F931D1E705B0F0BD10B50446DF
:104FC80048B140F29C5200212046FCF739FD2046AA
:104FD800FFF7E0FE10BD034A40F2E121024809F064
:104FE800B9F9EEE7085301083052010838B50D4603
:104FF8000446B8B1EDB140F28332294604F21320D9
:10500800FCF7EEFE012384F89635002384F8F4318A
:10501800A4F8F63194F8F83084F8F8312046FFF710
:10502800B9FE38BD064A40F2E921064809F092F96E
:10503800E0E7054A40F2EA21024809F08BF9DAE78D
:1050480008530108305201081C53010838B50D46B1
:105058000446E8B11DB3F82229462046FCF7C0FEF5
:10506800012384F8F83094F8F4312BB194F8F12145
:1050780095F8F5309A420AD0002384F8F431A4F860
:10508800F631012384F8F8312046FFF783FE38BD56
:10509800064A4FF43E71064809F05CF9DAE7054A1A
:1050A80040F2F921024809F055F9D4E708530108FC
:1050B800305201082C53010838B50C46054610B18A
:1050C80085F8984538BD034A4FF44471024809F001
:1050D80041F9F5E7085301083052010838B50C4684
:1050E800054610B185F8974538BD034A40F2173197
:1050F800024809F02FF9F5E7085301083052010872
:1051080010B5044610B194F8F80110BD034A4FF4E5
:105118004E71034809F01EF9F5E700BFC0520108B7
:1051280030520108F8B505460C461E4617463AB1F6
:105138006EB10135ED003D800334E4003480F8BDE4
:10514800064A40F23F31064809F004F9F0E7054AFB
:105158004FF45071024809F0FDF8EAE7405301089E
:1051680030520108505301082DE9F04704460D4616
:105178001646C378C3F580731F46002B21DB7F11C9
:1051880094F8008094F8019049464046FFF7A2FA47
:10519800D0B14FF0040A33462A4649464046FFF745
:1051A800C1FF2B885344043B2B803388043B9AB2BD
:1051B8003380A378013B032B0BD8DFE803F0080CFE
:1051C800130F03F11F07DAE74FF0000AE3E73A4449
:1051D8003280BDE8F087D21B3280FAE72B883B4447
:1051E8002B80F6E72B88DB1B2B80F2E72DE9F047B5
:1051F80084B00646884600241DE006EB8403D9796E
:10520800987904F06FFB074629E04FF0060903AAD6
:105218000DF10E015046FFF7A7FFBDF90C300193C1
:10522800BDF90E3000934B463A4602214046FFF73F
:1052380089FD0134E4B2032C1DD896F8F620A14666
:105248000123A34006EB840A0AF1040A13EA0205C3
:10525800D3D006EB8403D87904F04FFB0746144BF0
:1052680013F80990002DD2D096F8F730002BCCD047
:105278004FF00709CBE703AA0DF10E013046FFF7FF
:1052880073FFF178B07804F03FFB024696F8973543
:10529800BDF90C100191BDF90E100091003B18BF2B
:1052A800012302214046FFF74DFD04B0BDE8F08719
:1052B8000C97010870B50C460646E0B114B372228B
:1052C80000212046FCF7BCFB96F8F8508DB196F803
:1052D800965575B196F8F831DBB921463046FFF797
:1052E800D7FC21463046FFF733FE21463046FFF70C
:1052F8007DFF284670BD0B4A40F21E310A4809F06E
:1053080029F8DBE7094A40F21F31074809F022F87B
:10531800D5E721463046FFF787FC2578003D18BFC2
:105328000125E6E7085301083052010860530108D7
:1053380070B584B001900E4615460290002406E030
:105348003146029803F0F6FA02900134E4B2AC4216
:10535800F6D3029B03930020BDF80C3063F30F00D3
:10536800BDF80E3063F31F4004B070BD00B587B0C0
:10537800019000920222FFF7DBFF0490BDF8102095
:10538800BDF80030D31A12FA83F3ADF80C30BDF82B
:105398001220BDF80230D31A12FA83F3ADF80E309A
:1053A800039B05930020BDF8143063F30F00BDF88C
:1053B800163063F31F4007B05DF804FB10B586B0E4
:1053C80004460191807903F093FA03902046FDF793
:1053D800EBFE0490019903F0EBFA3F280CD8039BED
:1053E80005930020BDF8143063F30F00BDF81630A4
:1053F80063F31F4006B010BD019B0593F1E7000061
:1054080070B582B00E4601921D46044668B1032E5F
:1054180011D8002201992046FDF756FEA6710023F7
:10542800E3712572657202B070BD064A4B210648C9
:1054380008F090FFEBE7054A4C21034808F08AFF83
:10544800E7E700BF7C53010890530108E0530108C7
:1054580010B5044610B10023637210BD024A5821EA
:10546800024808F077FFF6E77C53010890530108DB
:1054780010B5044608B1607A10BD034A5F2103489D
:1054880008F068FFF7E700BF0054010890530108CF
:1054980010B5044608B1207A10BD034A66210348B6
:1054A80008F058FFF7E700BF0054010890530108BF
:1054B80010B5044610B10023237210BD024A6D21B5
:1054C800024808F047FFF6E77C53010890530108AB
:1054D80010B582B00191044658B1002201992046C6
:1054E800FDF7F2FD0123237200236372E37102B01A
:1054F80010BD034A7421034808F02CFFEDE700BFF4
:105508007C5301089053010838B50C46054608B18C
:10551800EC7138BD024A8C21024808F01BFFF7E7FE
:105528007C5301089053010870B584B00C46019271
:105538001E46054658B184B12B7AA3B9EB790BB353
:10554800AB79032B3AD8DFE803F022252C331F4A26
:1055580094211F4808F0FEFEEDE71E4A95211C48DD
:1055680008F0F8FEE8E7204603F05EF90390002013
:10557800BDF80C3063F30F00BDF80E3063F31F4025
:1055880004B070BDA87903F0B3F90390EFE7019B6D
:105598000393ECE7042231460198FFF7C9FE039014
:1055A800E5E7089A31460198FFF7E0FE0390DEE749
:1055B80001992846FFF702FF0390D8E7064AA92178
:1055C800034808F0C7FE019B0393D0E70054010885
:1055D800905301081450010814540108F0B589B01B
:1055E8000C4603921E46054628B154B16A7A72B138
:1055F800002009B0F0BD1F4AB5211F4808F0AAFED7
:10560800F3E71E4AB6211C4808F0A4FEEEE7284638
:10561800FDF7E6FD03F0F6F90746EB79022B1AD001
:105628000E9B00933346039A21462846FFF77CFFDA
:1056380005902846FDF7B8FD014607902B7A0093A0
:105648003B46059A204600F0C7F802462146284600
:10565800FDF77CFDCDE72846FDF7A6FD014606903F
:105668002B7A00933B46039A204600F0D5F8024671
:10567800ECE700BF7C53010890530108145001085F
:1056880010B582B0044670B12046FDF78DFD01903B
:105698000020BDF8043063F30F00BDF8063063F353
:1056A8001F4002B010BD034AD621034808F052FE3D
:1056B800EAE700BF005401089053010810B50446FA
:1056C80018B12046FDF78CFD10BD034ADD210348C3
:1056D80008F040FEF5E700BF0054010890530108A8
:1056E80010B5044608B1E07910BD034AE421034827
:1056F80008F030FEF7E700BF005401089053010896
:1057080008B5FFF7EDFF022814BF0020012008BDEF
:10571800884294BF00200120704788422CBF002097
:10572800012070472DE9F04F87B003910292994606
:105738009DF840B0804630B1119B53B100240194CC
:10574800A246274614E0204A3621204808F002FEE7
:10575800F2E71F4A37211D4808F0FCFDEEE70599DE
:10576800404603F0A3F8A8B101E0B2462F46013441
:10577800032C22D8174B1D5D2946039803F0DAF84D
:1057880001460590404602F04BFF0028EFD0BBF1E0
:10579800000FE4D04D450ED00299059803F008F9A2
:1057A8000646002FE1D05146119B98470028DCD1CE
:1057B80056463D46D9E70195D9E707B9019F3846CE
:1057C80007B0BDE8F08F00BF145001081C54010851
:1057D800745401081097010830B585B003910292FE
:1057E8001C46054660B1094B01939DF82030009393
:1057F8002346029A03992846FFF794FF05B030BD67
:10580800034A6E21034808F0A5FDECE7235700087A
:10581800145001081C54010810B584B00391029279
:10582800044C01949DF818400094FFF77BFF04B0E6
:1058380010BD00BF19570008044B00221A605A60B7
:105848009A60DA601A615A61704700BFCC3700204D
:1058580008B52021043005F0DBF808BD10B5044672
:10586800012805D804EB4404044800EB840010BD6B
:10587800034A2E21034808F06DFDF3E7CC370020DA
:105888008C540108B054010830B5CBB04FF4807582
:105898002A4600210AA8FCF7D3F82422002101A8EF
:1058A800FCF7CEF8134B0293042303930DF1100C6D
:1058B800114C0FCCACE80F0094E803008CE803000F
:1058C80001A8FFF7C5FF01900DF1280E0DF1040C9A
:1058D800BCE80F00AEE80F00BCE80F00AEE80F0010
:1058E800DCF80030CEF8003029460AA804F092F916
:1058F8004BB030BD4D434150CC37002010B5CAB035
:10590800FFF79AFF4FF480710AA804F061F90DF1CE
:10591800040E0DF1280CBCE80F00AEE80F00BCE83F
:105928000F00AEE80F00DCF80030CEF80030029A25
:105938000C4B9A4202D1039B042B01D04AB010BDF4
:10594800019C01A8FFF784FF8442F7D1064C0DF1B2
:10595800100CBCE80F000FC49CE8030084E80300A7
:10596800ECE700BF4D434150CC37002010B50C4642
:10597800FFF774FFF4B10023022B06D850F8232058
:10598800A24202D30133DBB2F6E7022B14D802227B
:10599800934209D202F18041013950F8211040F8B0
:1059A8002210013AD2B2F3E740F82340FFF76CFF28
:1059B800012010BD0020FCE70020FAE738B50546B5
:1059C8000C46022905D82846FFF748FF50F824005E
:1059D80038BD034A9921034808F0BCFCF3E700BF2F
:1059E80008550108B054010808B5FFF737FF0068EB
:1059F80008BD08B5FFF720FF04F04EF908BD0246C0
:105A0800036883EA433383EA534383EA431010600D
:105A1800704738B515461C46FFF7F1FF854274F10B
:105A280000042CBF0120002038BD002905DB162307
:105A380003FB01000244D079704700207047162309
:105A480003FB0103DB7983B1162303FB01031B7AF4
:105A58006BB1162303FB01035B7A53B1162303FBD7
:105A68000100837A3BB9002070470020704700206E
:105A78007047002070470120704730B504460D4636
:105A88004FF0000E70461AE001335BB2082B11DCB0
:105A9800DBB203EB83025EFA82F252B24FF0160CCD
:105AA8000CFB024C9CF806100029EDD12A54013059
:105AB800C0B2E9E740B90EF1010E4FFA8EFEBEF111
:105AC800040F01DC0023E1E730BD162303FB0101CD
